000000001CAEG661025BQ9   992605847028          000000000144168CAMACHO ESTRADA JOSE GABINO             001001
000000002CAEG661025BQ9   992605847028          000000000144168CAMACHO ESTRADA JOSE GABINO             001001
000000003CAVJ890222QEA   991                   000000000039662CHAVEZ VAZQUEZ JUAN PABLO               001001
000000004CAVJ890222QEA   991                   000000000039662CHAVEZ VAZQUEZ JUAN PABLO               001001

